:020000040800F2
:1000000000800020911700085D0400085F040008CC
:1000100000000000000000000000000000000000E0
:100020000000000000000000000000006104000863
:1000300000000000000000006304000865040008E0
:10004000011800080118000801180008011800082C
:10005000011800080118000801180008011800081C
:10006000011800080118000801180008011800080C
:1000700001180008011800080118000801180008FC
:1000800001180008011800080118000801180008EC
:1000900001180008011800080118000801180008DC
:1000A0000118000801180008011800089104000850
:0C00B00001180008CD0400080118000829
:1000BC0010B5064C2378002B07D1054B002B02D032
:1000CC00044800E000BF0123237010BD4400002051
:1000DC00000000005C180008044B10B5002B03D086
:1000EC000349044800E000BF10BDC04600000000FA
:1000FC00480000205C18000807B500F0E5FF01F08F
:10010C006DF8802252000092064B0749002001F046
:10011C00AFF8802252010092044B0549012001F0F6
:10012C00A7F807BD601000206021002060000020AF
:10013C006011002013B50121344B35481A680A436D
:10014C001A605A6802405A601A68324802401A60B3
:10015C001A68314802401A605A68304802400F2031
:10016C005A60DA6A8243DA621A6B2D4802401A63CB
:10017C005A6B80208A435A6300229A600092019243
:10018C008022196852020A431A608002A0220400DD
:10019C00D201196801400191009901310091019936
:1001AC00002902D100999142F3D11A68224000D063
:1001BC0001220192019A012A26D11121194A1160BA
:1001CC005A6819495A605A685A605A680A405A6003
:1001DC008822596852030A435A60802219685204D3
:1001EC000A431A608022920419681142FCD0032140
:1001FC005A688A435A60022259680A430C215A6091
:10020C005A680A40082AFBD113BDC04600100240B0
:10021C000CB8FF08FFFFF6FEFFFFFBFFFFFFC0FF60
:10022C00ACFEFFFF00200240FF7FC0FF0C2270B528
:10023C00134E144D73681340042B01D0082B0AD0B5
:10024C00114B2B6073682A681B061B0FEB181B796C
:10025C00DA402A6070BD0F23C02274687168A40C48
:10026C001C4052020234114203D1084844432C6012
:10027C00E8E7F16A04481940013101F0D1F9F5E7DA
:10028C00001002400000002000127A0000093D001E
:10029C00902310B5DB0598420AD180200121800201
:1002AC0000F0D0FB80200021800200F0CBFB10BDC1
:1002BC001D4B984208D180200121C00200F0C2FBE6
:1002CC0080200021C002F0E7184B984208D1802012
:1002DC000121000300F0B6FB802000210003E4E7BD
:1002EC00134B984208D180200121400300F0AAFB57
:1002FC00802000214003D8E70E4B984208D1802083
:10030C000121800300F09EFB802000218003CCE7BC
:10031C00094B9842CBD180200121C00300F092FB05
:10032C0080200021C003C0E70004004800080048FA
:10033C00000C00480010004800140048F7B50B688A
:10034C000193002301259D40019A2A4095422DD10D
:10035C000A79541E012C16D884685F0026000324E9
:10036C00BC40A64386608468A4464C79BC40674672
:10037C003C4384608488AC4384808D7984889D4020
:10038C002C43A4B2848003245D00AC40E443AA4017
:10039C0007682740076007683A430260C268144048
:1003AC00C460CA79C468AA402243C2600133102BCE
:1003BC00C8D1F7BD044B01220360002342710371C5
:1003CC008371C3717047C046FFFF0000802382B069
:1003DC005B020193019B0B430193019BC361C161C0
:1003EC00019BC361C3690193C369019302B0704758
:1003FC00008A0840411E8841C0B27047008A80B212
:10040C007047808A0840411E8841C0B27047808A7C
:10041C0080B270478161704701857047002A01D016
:10042C00816170470185FCE781827047072310B515
:10043C000F240B409B009C409A40C908890040182F
:10044C00016AA1430162016A0A43026210BDC046FF
:10045C007047FEE770477047FA21084B10B51A68D1
:10046C00890001321A60186801F060F9002903D183
:10047C00034A13680133136010BDC046602200208C
:10048C006422002010B50B490B4800F0FBFD01283D
:10049C0006D1094800F0ECFCC1B2002001F04CF888
:1004AC000649054800F0EEFD012802D1002000F0BD
:1004BC00E9FF10BD050105000038014007010700E8
:1004CC0010B51549154800F0DDFD040001280FD1C9
:1004DC00124800F0CDFCC1B2200001F02DF81049FB
:1004EC000E4800F0CFFD01280ED100F0CBFF10BD5F
:1004FC0009490C4800F0C6FD0128F0D1094800F06C
:10050C00B7FCC1B20220E8E70549064800F0BAFD85
:10051C000128ECD10130E8E705010500004C004052
:10052C0007010700004800400121114B11481A68CF
:10053C000A431A605A6802405A601A680E48024010
:10054C001A601A680D4802401A605A680C4802403A
:10055C000F205A60DA6A8243DA621A6B0948024049
:10056C001A635A6B8A435A6300229A607047C046DA
:10057C00001002400CB8FF08FFFFF6FEFFFFFBFF68
:10058C00FFFFC0FFACFEF0FF0022024B1A70187088
:10059C007047C04602100240F821034AC00013689D
:1005AC008B4318431060704700100240054B01222A
:1005BC001968002802D00A431A60704791431960E9
:1005CC00FBE7C04600100240F821034AC000536B01
:1005DC008B4318435063704700100240054B0122B7
:1005EC00596B002802D00A435A63704791435963F0
:1005FC00FBE7C04600100240054B0422596B002853
:10060C0002D09143596370470A435A63FBE7C046D3
:10061C00001002400121064B1A6A8A431A621A6AB8
:10062C0003318A431A621A6A104318627047C04633
:10063C00001002401821044B1A6A8A431A621A6A83
:10064C00104318627047C04600100240054B01224F
:10065C00596A002802D00A435A6270479143596282
:10066C00FBE7C04600100240054A10B55368054C24
:10067C0023405360536819430843506010BDC04673
:10068C0000100240FF7FC2FF064B002805D08022DD
:10069C00196852040A431A6070471A6802490A40E2
:1006AC00F9E7C04600100240FFFFFFFE064B002892
:1006BC0005D08022596B52020A435A6370475A6B19
:1006CC0002490A40F9E7C04600100240FFFFFEFF56
:1006DC000F21034AD36A8B431843D0627047C0463C
:1006EC0000100240064B002805D080221968120326
:1006FC000A431A6070471A6802490A40F9E7C04673
:10070C0000100240FFFFF7FF044A000653681B026B
:10071C001B0A1943014351607047C0460010024048
:10072C000321034A53688B43184350607047C046FB
:10073C0000100240024B58680C2318407047C0460A
:10074C0000100240F021034A53688B431843506059
:10075C007047C04600100240034A044953680B40DE
:10076C00184350607047C04600100240FFF8FFFF6E
:10077C00084B09495A680A405A60596882B20A43C0
:10078C005A601A6B0549000C0A401A631A6B104325
:10079C001863704700100240FFBFFFFFFFFEFFFF12
:1007AC004021044B1A6B8A431A631A6B104318636B
:1007BC007047C046001002401021044B1A6B8A434C
:1007CC001A631A6B104318637047C046001002403E
:1007DC00020F0A4B012A07D103211A6B8A431A63B1
:1007EC001A6B104318637047022A03D11A6B044921
:1007FC000A40F4E71A6B0349FAE7C04600100240BE
:10080C00FFFFFCFFFFFFF3FF8021044B1A6B8A43B1
:10081C001A631A6B104318637047C04600100240ED
:10082C00F8B504000C20584D6B680340180000F01C
:10083C00EDFE07555555555555553A5555555100DD
:10084C00524A226020686A680100514E1206120F4B
:10085C00B25CD1400A00616069684905490F715C5E
:10086C00CA40A260296BC9053AD44A49E160296B98
:10087C0049063CD448492161296BC9063AD44349FD
:10088C00616103212E6B0E4236D1A261C0212E6B09
:10089C0089020E4244D1E261C0212E6B09030E4243
:1008AC0056D122625BE00F226B6869689B0C134087
:1008BC009E1CC0235B02194203D1384B7343236047
:1008CC00C0E7E96A31481140013100F0A9FE33005C
:1008DC004343F4E7324B23600023B3E72B4BFAE797
:1008EC006968490401D45108C0E79108BEE780212A
:1008FC000902C0E76061C4E72E6B0E40012E01D1E6
:10090C00A061C3E72E6B0E40022E03D18021090299
:10091C00A161BBE72E6B31400329B7D11B49F7E727
:10092C0080272E6B7F020E40BE4201D1E061B3E7FF
:10093C0080272E6BBF020E40BE4203D180210902DC
:10094C00E161A9E72E6B0E408E42A5D10F49F7E766
:10095C0080262A6BF6020A40B24206D120622A6B2C
:10096C00120600D40E4B6362F8BD80202A6B000384
:10097C000A40824202D18022120292E72A6B0A407C
:10098C008A42ECD1014A8CE70010024000127A0036
:10099C0014000020809FD5001280000000093D004B
:1009AC00006CDC02024A136A184310627047C0469E
:1009BC0000100240064B002805D08022196A120252
:1009CC000A431A6270471A6A02490A40F9E7C0469C
:1009DC0000100240FF7FFFFF064B002805D080224D
:1009EC00196A52020A431A6270471A6A02490A408B
:1009FC00F9E7C04600100240FFFFFEFF044B5A69A6
:100A0C00002902D010435861704782435A61FBE7BA
:100A1C0000100240044B9A69002902D010439861DF
:100A2C00704782439A61FBE700100240044BDA697D
:100A3C00002902D01043D86170478243DA61FBE78A
:100A4C0000100240044B9A6A002902D010439862AD
:100A5C00704782439A62FBE700100240044BDA684D
:100A6C00002902D01043D86070478243DA60FBE75C
:100A7C0000100240044B1A69002902D0104318617F
:100A8C00704782431A61FBE700100240044B1A784E
:100A9C00002902D010431870704782431A70FBE78C
:100AAC00091002404209094B06D11B681F22104055
:100ABC00C340012018407047012A01D11B6AF5E799
:100ACC00022A01D15B6AF1E75B6BEFE70010024091
:100ADC0013B50023A0240193E4011120FFF7E2FFDA
:100AEC00019B01330193019BA34201D00028F4D058
:100AFC001120FFF7D7FF431E9841C0B216BD8023CB
:100B0C00024A5B04516A0B43536270470010024067
:100B1C000300034A90681840431E9841C0B27047C6
:100B2C0000100240014B18707047C0460A1002407A
:100B3C002F4B10B598420AD180200121C001FFF73C
:100B4C008DFF80200021C001FFF788FF0CE0294BAE
:100B5C0098420AD1802001218002FFF78BFF802070
:100B6C0000218002FFF786FF10BD234B984208D16D
:100B7C0080200121C002FFF77DFF80200021C002F0
:100B8C00F0E71E4B984208D1802001210003FFF7AB
:100B9C0071FF802000210003E4E7194B984208D133
:100BAC00802001214003FFF765FF802000214003D6
:100BBC00D8E7144B984206D101212020FFF74EFFB5
:100BCC0000212020C0E7104B984206D10121402083
:100BDC00FFF744FF00214020B6E70C4B9842C3D1ED
:100BEC0001218020FFF73AFF00218020ACE7C046AE
:100BFC00003801400044004000480040004C0040D8
:100C0C00005000400014014000180140001C01403D
:100C1C000122F0B50D0003688BB093430360436869
:100C2C00224A040013408A68134343600368204A35
:100C3C001A404B68C9680B4329690B431343036083
:100C4C0083681C4A13406A69134383606846FFF744
:100C5C00E7FD194B069E9C4208D0184B079E9C4200
:100C6C0004D0174B089E9C4200D0029E23682F682C
:100C7C001B0400D576003900300000F0D1FC39009F
:100C8C000500300000F052FD00237F08B9425B41A3
:100C9C00ED1823681B0404D50A4B2A07520F1D407C
:100CAC001543ADB2A5810BB0F0BDC046FFCFFFFF21
:100CBC00F3E9FFFFFFFCFFFF003801400044004058
:100CCC0000480040F0FF000096239B0103600C22BB
:100CDC000023026143608360C360436170474368D3
:100CEC00064A10B51A404C680B6823438C68C968D7
:100CFC0023430B431343436010BDC046FFF0FFFF7B
:100D0C000023036043608360C36070470123026863
:100D1C00002902D01343036070479A430260FBE73B
:100D2C000368002A02D01943016070478B430360AB
:100D3C00FBE7002905D0802302681B0213430360E4
:100D4C0070470368014A1340F9E7C046FF7FFFFF75
:100D5C00002905D0802382681B01134383607047F0
:100D6C008368014A1340F9E7FFF7FFFF002905D01C
:100D7C00802342681B031343436070474368014A56
:100D8C001340F9E7FFFFF7FF002905D080234268E5
:100D9C00DB021343436070474368014A1340F9E791
:100DAC00FFFFFBFF4368002A02D0194341607047E4
:100DBC008B434360FBE7002905D0802342681B026C
:100DCC001343436070474368014A1340F9E7C04638
:100DDC00FF7FFFFF002905D0802342681B041343CB
:100DEC00436070474368014A1340F9E7FFFF7FFFF8
:100DFC0043691B0E1B0643614369194341617047EC
:100E0C00FF22038A93430382038A194301827047AA
:100E1C0002230268002902D01343036070479A43EF
:100E2C000260FBE78368034A1340836083681943BD
:100E3C0081607047FFFFCFFF002905D080234268F7
:100E4C005B031343436070474368014A1340F9E75F
:100E5C00FFFFEFFF4368034A1340436043681943A5
:100E6C0041607047FFFF9FFFC905C90D01857047A1
:100E7C00808CC005C00D7047436809061B021B0A15
:100E8C0043604368194341607047002905D08023B3
:100E9C0002689B011343036070470368014A1340C7
:100EAC00F9E7C046FFDFFFFF0368034A1340036006
:100EBC000368194301607047FFF7FFFF1022436876
:100ECC009343436043681943416070472022436851
:100EDC00934343604368194341607047002905D030
:100EEC0080234268DB011343436070474368014A27
:100EFC001340F9E7FFBFFFFF08238268002902D0E7
:100F0C001343836070479A438260FBE7038A0902AC
:100F1C00DBB20382038A1943018270472023826863
:100F2C00002902D01343836070479A438260FBE729
:100F3C0010238268002902D01343836070479A43C0
:100F4C008260FBE78368044A49041340836083682A
:100F5C00194381607047C046FFFFF1FF43690906E2
:100F6C001B021B0A43614369194341617047042208
:100F7C0083689343836083681943816070470223BD
:100F8C008268002902D01343836070479A438260C1
:100F9C00FBE7002905D080238268DB0113438360C3
:100FAC0070478368014A1340F9E7C046FFBFFFFF53
:100FBC008368034A134083608368194381607047D8
:100FCC00FF7FFFFF0368044A490513400360036871
:100FDC00194301607047C046FFFF1FFC0368044AB9
:100FEC000904134003600368194301607047C0464D
:100FFC00FFFFE0FF8368002A02D01943816070472D
:10100C008B438360FBE78368034A134083608368E8
:10101C00194381607047C046FFDFFFFF012310B505
:10102C008CB2C9B2240A8B40022C06D10430002A9F
:10103C0007D002681343036010BD032CF7D10830AE
:10104C00F5E702689A430260F6E7038B002A03D0A7
:10105C00194389B2018370478B430383FBE7836891
:10106C00034A134083608368194381607047C0460C
:10107C00FFEFFFFFC0690840411E8841C0B27047B6
:10108C0001627047012310B58AB2CCB2120AA34098
:10109C00012A0DD102681340C2690020834206D098
:1010AC00090C013088401040431E9841C0B210BD5D
:1010BC00022A01D14268EEE78268ECE70123090CB1
:1010CC008B4003627047C0468020F0B5012185B08B
:1010DC008002FFF793FC80200121C002FFF78EFCF9
:1010EC00802001210003FFF789FC802001214003AF
:1010FC00FFF784FC802000250121C003FFF77EFC54
:10110C00214B1C1D277802AB1F71637802AA9371C7
:10111C00A3781D49D371130001225A710A236B4322
:10112C00194AD25CCB18597809020A439978DB78B2
:10113C00090411431B060B430193144A1B0C9B001F
:10114C009E586B469B8802A930000293FFF7F6F875
:10115C00022F0AD12279E1783000FFF767F90135C7
:10116C000A340D2DCED105B0F0BD012FF7D16A4652
:10117C00637991883000002B02D1FFF74DF9EEE72F
:10118C00FFF748F9EBE7C04674180008240000206C
:10119C0010B581B2034B000C8000C058FFF73AF930
:1011AC0010BDC0462400002010B581B2034B000CCA
:1011BC008000C058FFF730F910BDC0462400002055
:1011CC00054B81B2000C800010B5C058FFF710F928
:1011DC00431E9841C0B210BD240000208020F0B501
:1011EC00012187B0C001FFF715FCE1276846FFF726
:1011FC009FFC00240C231A4D1A4E7F0269462800CE
:10120C00049301940294039405940097FFF700FD56
:10121C00012231002800FFF701FF80238020124DAE
:10122C001B052B6001210003FFF700FC6846FFF74C
:10123C007FFC0C2301940294039405940B4C694697
:10124C00200004930097FFF7E3FC012231002000FB
:10125C00FFF7E4FE80239B052B6007B0F0BDC04672
:10126C00003801400501050000E100E0004C0040A1
:10127C00F0B585B000930AAB1B8807000E000192F5
:10128C0002930025022843D8A94241D0009BAB42CF
:10129C003ED01822130043431F4903935C182000CF
:1012AC00290000F0CDFA1D4BBF00FA5C1A490398D7
:1012BC00DF1942547B786370BB78A370FB7826717E
:1012CC00E370330A6371330CA3716B461B79360ED2
:1012DC002373019BA5721B0A63736B461B78E57223
:1012EC00A373009B25721B0AE373009B65721B0C96
:1012FC002374009B25751B0E63746B46E671657534
:10130C001B7AA574A375029BE5741B0AE375013562
:10131C00280005B0F0BDC04668220020380000202F
:10132C00F7B518264643234B00259E193300009130
:10133C00019208330199AAB2914212D8182358434A
:10134C001C4B19181A5C4B7888781B021343000449
:10135C000343C8780122000618431749FFF75EFEC5
:10136C00F7BD009A9C79575DDA79120222431C7AF8
:10137C00240422435C7A240614439A7A94466146E8
:10138C00DA7A12020A43A754DA7A9C7A12022243BE
:10139C00013292B2140ADC7234009A721034E4797D
:1013AC00B17D240200270C43A24201D39F72DF724D
:1013BC000135BFE7682200200701070007B56B461F
:1013CC00D971073301221900FFF7AAFF07BD70B5C9
:1013DC00050008000C0000F011F9210082B2280071
:1013EC00FFF79EFF70BD18214843154970B50918C9
:1013FC000C004B7D0A7D1B021343CA7C887C1202B5
:10140C000243083400209A4218D0E079A2790002F5
:10141C001043227A002512041043627A120602430A
:10142C00D05C01339BB21A0A23736273CA7D8E7D22
:10143C0012023243934201D32573657370BDC046CB
:10144C0068220020182230B550430D4A1218537DE3
:10145C00107DD47C1B020343907C240204430020A7
:10146C001032A34200D130BDD179957901330902F4
:10147C009BB229438B428941013080B20B40F0E78B
:10148C006822002070B50400FFF7DCFF1821020071
:10149C00124B6143002812D05D5C5B185A78200017
:1014AC0012022A439D782D042A43DD782D0615431C
:1014BC00FFF799FF81B22800FFF7D6FC70BD5C5C8A
:1014CC005B1858780649000204439878DB780004CE
:1014DC0020431B061843FFF7A1FDEFE7682200200D
:1014EC0007010700182330B55843124B18184379DD
:1014FC0002791B0213438279047A12041343C279D2
:10150C0012061A43437A1B022343D154437A027ABC
:10151C001B02134301339BB21A0A4272427B057BB6
:10152C001202002103722A43934201D301724172C9
:10153C0030BDC0466822002010B5FFF7D3FF10BDA8
:10154C00182230B550430E4A1218D37A917A547A35
:10155C001B020B43117A240208320C4300201100A9
:10156C00A34200D130BD4A790D79013312029BB2EE
:10157C002A4393429241013080B21340F0E7C046B7
:10158C0068220020182330B558430D4B1B18DA7A0B
:10159C00997A120258790A43197900020843997909
:1015AC001D7B09040843D97909060143885C597BE2
:1015BC00090229438A4202D900229A72DA7230BD9A
:1015CC0068220020F7B5060001911700FFF7B8FF5D
:1015DC00041E0AD082B2019D031CBA4200D93B1CE6
:1015EC009FB2019BDF19AF4201D12000FEBD30003C
:1015FC00FFF7C8FF28700135F5E7C0460023C25C31
:10160C000133002AFBD1581E7047000002B471460A
:10161C0049084900095C49008E4402BC7047C04629
:10162C00002243088B4274D303098B425FD3030A15
:10163C008B4244D3030B8B4228D3030C8B420DD328
:10164C00FF22090212BA030C8B4202D312120902B6
:10165C0065D0030B8B4219D300E0090AC30B8B42F4
:10166C0001D3CB03C01A5241830B8B4201D38B03A2
:10167C00C01A5241430B8B4201D34B03C01A524147
:10168C00030B8B4201D30B03C01A5241C30A8B428A
:10169C0001D3CB02C01A5241830A8B4201D38B0275
:1016AC00C01A5241430A8B4201D34B02C01A524119
:1016BC00030A8B4201D30B02C01A5241CDD2C3098B
:1016CC008B4201D3CB01C01A524183098B4201D307
:1016DC008B01C01A524143098B4201D34B01C01AF2
:1016EC00524103098B4201D30B01C01A5241C3086A
:1016FC008B4201D3CB00C01A524183088B4201D3D9
:10170C008B00C01A524143088B4201D34B00C01AC4
:10171C005241411A00D20146524110467047FFE730
:10172C0001B5002000F006F802BDC0460029F7D034
:10173C0076E770477047C046FA210E4B10B5186813
:10174C008900FFF76DFF0C4B013898420DD8C02172
:10175C000A4A090650600A48036A1B021B0A0B431B
:10176C0003620023936007331360FEF7C5FC00206F
:10177C0010BDC04600000020FFFFFF0010E000E09D
:10178C0000ED00E01348854604200168090E1F2275
:10179C00914205D1104801210160104800210160DF
:1017AC00002103E00E4B5B58435004310D480E4BA7
:1017BC0042189A42F6D30D4A02E000231360043219
:1017CC000B4B9A42F9D3FEF7B5FC00F015F8FFF776
:1017DC00B3FFFEE70080002018100240000001401B
:1017EC0000190008000000204400002044000020E4
:1017FC00B0220020FEE7000070B500260C4D0D4C09
:10180C00641BA410A64209D1002600F021F80A4D51
:10181C000A4C641BA410A64205D170BDB300EB5852
:10182C0098470136EEE7B300EB5898470136F2E7DC
:10183C00F8180008F8180008F8180008FC18000838
:10184C0003008218934200D1704719700133F9E7F5
:10185C00F8B5C046F8BC08BC9E467047F8B5C04603
:08186C00F8BC08BC9E46704761
:10187400010000000300000000000200000003005B
:101884000000000004000000030000000000080045
:101894000000030000000000100000000100000030
:1018A40000012000000002000205000040000000CA
:1018B400020002060000800000000200020700008F
:1018C40000020000020001090100000400000200FF
:1018D400010A0100000402000200010A00000008DD
:1018E40002000200010B00000400030001000000DC
:0418F40000000000F0
:0418F800E5000008FF
:0418FC00BD00000823
:10190000006CDC0200000000000000000102030483
:101910000607080900000000010203040102030495
:1019200006070809000000480004004800080048B5
:10193000000C00480014004800380140004C0040F2
:04194000004800401B
:040000050800179147
:00000001FF
